{
  "_format": "hh-sol-artifact-1",
  "contractName": "Lottery",
  "sourceName": "contracts/Lottery.sol",
  "abi": [
    {
      "inputs": [],
      "stateMutability": "nonpayable",
      "type": "constructor"
    },
    {
      "anonymous": false,
      "inputs": [
        {
          "indexed": false,
          "internalType": "address",
          "name": "_from",
          "type": "address"
        },
        {
          "indexed": false,
          "internalType": "address",
          "name": "_to",
          "type": "address"
        },
        {
          "indexed": false,
          "internalType": "uint256",
          "name": "_amount",
          "type": "uint256"
        }
      ],
      "name": "moneySent",
      "type": "event"
    },
    {
      "inputs": [],
      "name": "enter",
      "outputs": [],
      "stateMutability": "payable",
      "type": "function"
    },
    {
      "inputs": [],
      "name": "getPlayers",
      "outputs": [
        {
          "internalType": "address payable[]",
          "name": "",
          "type": "address[]"
        }
      ],
      "stateMutability": "view",
      "type": "function"
    },
    {
      "inputs": [],
      "name": "manager",
      "outputs": [
        {
          "internalType": "address",
          "name": "",
          "type": "address"
        }
      ],
      "stateMutability": "view",
      "type": "function"
    },
    {
      "inputs": [],
      "name": "pickWinner",
      "outputs": [],
      "stateMutability": "nonpayable",
      "type": "function"
    },
    {
      "inputs": [
        {
          "internalType": "uint256",
          "name": "",
          "type": "uint256"
        }
      ],
      "name": "players",
      "outputs": [
        {
          "internalType": "address payable",
          "name": "",
          "type": "address"
        }
      ],
      "stateMutability": "view",
      "type": "function"
    },
    {
      "inputs": [],
      "name": "prizePool",
      "outputs": [
        {
          "internalType": "uint256",
          "name": "",
          "type": "uint256"
        }
      ],
      "stateMutability": "view",
      "type": "function"
    }
  ],
  "bytecode": "0x608060405234801561001057600080fd5b50336000806101000a81548173ffffffffffffffffffffffffffffffffffffffff021916908373ffffffffffffffffffffffffffffffffffffffff160217905550610d98806100606000396000f3fe6080604052600436106100555760003560e01c8063481c6a751461005a5780635d495aea14610085578063719ce73e1461009c5780638b5b9ccc146100c7578063e97dcb62146100f2578063f71d96cb146100fc575b600080fd5b34801561006657600080fd5b5061006f610139565b60405161007c9190610677565b60405180910390f35b34801561009157600080fd5b5061009a61015d565b005b3480156100a857600080fd5b506100b1610368565b6040516100be91906106ab565b60405180910390f35b3480156100d357600080fd5b506100dc61036e565b6040516100e99190610796565b60405180910390f35b6100fa6103fc565b005b34801561010857600080fd5b50610123600480360381019061011e91906107e9565b610583565b6040516101309190610825565b60405180910390f35b60008054906101000a900473ffffffffffffffffffffffffffffffffffffffff1681565b60008054906101000a900473ffffffffffffffffffffffffffffffffffffffff1673ffffffffffffffffffffffffffffffffffffffff163373ffffffffffffffffffffffffffffffffffffffff16146101eb576040517f08c379a00000000000000000000000000000000000000000000000000000000081526004016101e29061089d565b60405180910390fd5b600060018054905011610233576040517f08c379a000000000000000000000000000000000000000000000000000000000815260040161022a90610909565b60405180910390fd5b60006001805490506102436105c2565b61024d9190610958565b90506001818154811061026357610262610989565b5b9060005260206000200160009054906101000a900473ffffffffffffffffffffffffffffffffffffffff1673ffffffffffffffffffffffffffffffffffffffff166108fc6002549081150290604051600060405180830381858888f193505050501580156102d5573d6000803e3d6000fd5b507fb7ab87c89e4facb2e4e2cb412f8fba56bc3ccc96308adb9c2ba0ea961fabcd84336001838154811061030c5761030b610989565b5b9060005260206000200160009054906101000a900473ffffffffffffffffffffffffffffffffffffffff1660025460405161034993929190610a17565b60405180910390a16001600061035f91906105f8565b60026000905550565b60025481565b606060018054806020026020016040519081016040528092919081815260200182805480156103f257602002820191906000526020600020905b8160009054906101000a900473ffffffffffffffffffffffffffffffffffffffff1673ffffffffffffffffffffffffffffffffffffffff16815260200190600101908083116103a8575b5050505050905090565b60005b6001805490508110156104cc57600181815481106104205761041f610989565b5b9060005260206000200160009054906101000a900473ffffffffffffffffffffffffffffffffffffffff1673ffffffffffffffffffffffffffffffffffffffff163373ffffffffffffffffffffffffffffffffffffffff1614156104b9576040517f08c379a00000000000000000000000000000000000000000000000000000000081526004016104b090610ac0565b60405180910390fd5b80806104c490610b0f565b9150506103ff565b50662386f26fc10000341015610517576040517f08c379a000000000000000000000000000000000000000000000000000000000815260040161050e90610bca565b60405180910390fd5b6001339080600181540180825580915050600190039060005260206000200160009091909190916101000a81548173ffffffffffffffffffffffffffffffffffffffff021916908373ffffffffffffffffffffffffffffffffffffffff16021790555047600281905550565b6001818154811061059357600080fd5b906000526020600020016000915054906101000a900473ffffffffffffffffffffffffffffffffffffffff1681565b6000444260016040516020016105da93929190610d29565b6040516020818303038152906040528051906020012060001c905090565b50805460008255906000526020600020908101906106169190610619565b50565b5b8082111561063257600081600090555060010161061a565b5090565b600073ffffffffffffffffffffffffffffffffffffffff82169050919050565b600061066182610636565b9050919050565b61067181610656565b82525050565b600060208201905061068c6000830184610668565b92915050565b6000819050919050565b6106a581610692565b82525050565b60006020820190506106c0600083018461069c565b92915050565b600081519050919050565b600082825260208201905092915050565b6000819050602082019050919050565b60006106fd82610636565b9050919050565b61070d816106f2565b82525050565b600061071f8383610704565b60208301905092915050565b6000602082019050919050565b6000610743826106c6565b61074d81856106d1565b9350610758836106e2565b8060005b838110156107895781516107708882610713565b975061077b8361072b565b92505060018101905061075c565b5085935050505092915050565b600060208201905081810360008301526107b08184610738565b905092915050565b600080fd5b6107c681610692565b81146107d157600080fd5b50565b6000813590506107e3816107bd565b92915050565b6000602082840312156107ff576107fe6107b8565b5b600061080d848285016107d4565b91505092915050565b61081f816106f2565b82525050565b600060208201905061083a6000830184610816565b92915050565b600082825260208201905092915050565b7f596f7520617265206e6f7420746865206d616e61676572000000000000000000600082015250565b6000610887601783610840565b915061089282610851565b602082019050919050565b600060208201905081810360008301526108b68161087a565b9050919050565b7f4e6f20706c617965727300000000000000000000000000000000000000000000600082015250565b60006108f3600a83610840565b91506108fe826108bd565b602082019050919050565b60006020820190508181036000830152610922816108e6565b9050919050565b7f4e487b7100000000000000000000000000000000000000000000000000000000600052601260045260246000fd5b600061096382610692565b915061096e83610692565b92508261097e5761097d610929565b5b828206905092915050565b7f4e487b7100000000000000000000000000000000000000000000000000000000600052603260045260246000fd5b6000819050919050565b60006109dd6109d86109d384610636565b6109b8565b610636565b9050919050565b60006109ef826109c2565b9050919050565b6000610a01826109e4565b9050919050565b610a11816109f6565b82525050565b6000606082019050610a2c6000830186610668565b610a396020830185610a08565b610a46604083018461069c565b949350505050565b7f3430393a2074686520706c617965722068617320616c7265616479207265676960008201527f73746572656420746f20746865206c6f74746572792e00000000000000000000602082015250565b6000610aaa603683610840565b9150610ab582610a4e565b604082019050919050565b60006020820190508181036000830152610ad981610a9d565b9050919050565b7f4e487b7100000000000000000000000000000000000000000000000000000000600052601160045260246000fd5b6000610b1a82610692565b91507fffffffffffffffffffffffffffffffffffffffffffffffffffffffffffffffff821415610b4d57610b4c610ae0565b5b600182019050919050565b7f506c6561736520656e746572207769746820302e30312045746865722061742060008201527f6d696e696d756d00000000000000000000000000000000000000000000000000602082015250565b6000610bb4602783610840565b9150610bbf82610b58565b604082019050919050565b60006020820190508181036000830152610be381610ba7565b9050919050565b6000819050919050565b610c05610c0082610692565b610bea565b82525050565b600081549050919050565b600081905092915050565b60008190508160005260206000209050919050565b610c3f816106f2565b82525050565b6000610c518383610c36565b60208301905092915050565b60008160001c9050919050565b600073ffffffffffffffffffffffffffffffffffffffff82169050919050565b6000610c9d610c9883610c5d565b610c6a565b9050919050565b6000610cb08254610c8a565b9050919050565b6000600182019050919050565b6000610ccf82610c0b565b610cd98185610c16565b9350610ce483610c21565b8060005b83811015610d1c57610cf982610ca4565b610d038882610c45565b9750610d0e83610cb7565b925050600181019050610ce8565b5085935050505092915050565b6000610d358286610bf4565b602082019150610d458285610bf4565b602082019150610d558284610cc4565b915081905094935050505056fea264697066735822122007ebbcfc6fb3bdeeb33006c9379b75ffb8d72207086381259ee1de76bfb92b7264736f6c63430008090033",
  "linkReferences": {},
  "deployedLinkReferences": {}
}